{
  "contractName": "DappTokenCrowdsale",
  "abi": [
    {
      "constant": true,
      "inputs": [],
      "name": "hasClosed",
      "outputs": [
        {
          "name": "",
          "type": "bool"
        }
      ],
      "payable": false,
      "stateMutability": "view",
      "type": "function"
    },
    {
      "constant": true,
      "inputs": [],
      "name": "rate",
      "outputs": [
        {
          "name": "",
          "type": "uint256"
        }
      ],
      "payable": false,
      "stateMutability": "view",
      "type": "function"
    },
    {
      "constant": true,
      "inputs": [],
      "name": "cap",
      "outputs": [
        {
          "name": "",
          "type": "uint256"
        }
      ],
      "payable": false,
      "stateMutability": "view",
      "type": "function"
    },
    {
      "constant": true,
      "inputs": [],
      "name": "weiRaised",
      "outputs": [
        {
          "name": "",
          "type": "uint256"
        }
      ],
      "payable": false,
      "stateMutability": "view",
      "type": "function"
    },
    {
      "constant": true,
      "inputs": [
        {
          "name": "",
          "type": "address"
        }
      ],
      "name": "contributions",
      "outputs": [
        {
          "name": "",
          "type": "uint256"
        }
      ],
      "payable": false,
      "stateMutability": "view",
      "type": "function"
    },
    {
      "constant": true,
      "inputs": [],
      "name": "closingTime",
      "outputs": [
        {
          "name": "",
          "type": "uint256"
        }
      ],
      "payable": false,
      "stateMutability": "view",
      "type": "function"
    },
    {
      "constant": true,
      "inputs": [],
      "name": "capReached",
      "outputs": [
        {
          "name": "",
          "type": "bool"
        }
      ],
      "payable": false,
      "stateMutability": "view",
      "type": "function"
    },
    {
      "constant": true,
      "inputs": [],
      "name": "wallet",
      "outputs": [
        {
          "name": "",
          "type": "address"
        }
      ],
      "payable": false,
      "stateMutability": "view",
      "type": "function"
    },
    {
      "constant": false,
      "inputs": [],
      "name": "renounceOwnership",
      "outputs": [],
      "payable": false,
      "stateMutability": "nonpayable",
      "type": "function"
    },
    {
      "constant": false,
      "inputs": [
        {
          "name": "_beneficiary",
          "type": "address"
        }
      ],
      "name": "removeFromWhitelist",
      "outputs": [],
      "payable": false,
      "stateMutability": "nonpayable",
      "type": "function"
    },
    {
      "constant": false,
      "inputs": [
        {
          "name": "_beneficiaries",
          "type": "address[]"
        }
      ],
      "name": "addManyToWhitelist",
      "outputs": [],
      "payable": false,
      "stateMutability": "nonpayable",
      "type": "function"
    },
    {
      "constant": true,
      "inputs": [],
      "name": "owner",
      "outputs": [
        {
          "name": "",
          "type": "address"
        }
      ],
      "payable": false,
      "stateMutability": "view",
      "type": "function"
    },
    {
      "constant": true,
      "inputs": [
        {
          "name": "",
          "type": "address"
        }
      ],
      "name": "whitelist",
      "outputs": [
        {
          "name": "",
          "type": "bool"
        }
      ],
      "payable": false,
      "stateMutability": "view",
      "type": "function"
    },
    {
      "constant": true,
      "inputs": [],
      "name": "investorMinCap",
      "outputs": [
        {
          "name": "",
          "type": "uint256"
        }
      ],
      "payable": false,
      "stateMutability": "view",
      "type": "function"
    },
    {
      "constant": true,
      "inputs": [],
      "name": "openingTime",
      "outputs": [
        {
          "name": "",
          "type": "uint256"
        }
      ],
      "payable": false,
      "stateMutability": "view",
      "type": "function"
    },
    {
      "constant": false,
      "inputs": [
        {
          "name": "_beneficiary",
          "type": "address"
        }
      ],
      "name": "addToWhitelist",
      "outputs": [],
      "payable": false,
      "stateMutability": "nonpayable",
      "type": "function"
    },
    {
      "constant": false,
      "inputs": [
        {
          "name": "_beneficiary",
          "type": "address"
        }
      ],
      "name": "buyTokens",
      "outputs": [],
      "payable": true,
      "stateMutability": "payable",
      "type": "function"
    },
    {
      "constant": true,
      "inputs": [],
      "name": "investorHardCap",
      "outputs": [
        {
          "name": "",
          "type": "uint256"
        }
      ],
      "payable": false,
      "stateMutability": "view",
      "type": "function"
    },
    {
      "constant": false,
      "inputs": [
        {
          "name": "_newOwner",
          "type": "address"
        }
      ],
      "name": "transferOwnership",
      "outputs": [],
      "payable": false,
      "stateMutability": "nonpayable",
      "type": "function"
    },
    {
      "constant": true,
      "inputs": [],
      "name": "token",
      "outputs": [
        {
          "name": "",
          "type": "address"
        }
      ],
      "payable": false,
      "stateMutability": "view",
      "type": "function"
    },
    {
      "inputs": [
        {
          "name": "_rate",
          "type": "uint256"
        },
        {
          "name": "_wallet",
          "type": "address"
        },
        {
          "name": "_token",
          "type": "address"
        },
        {
          "name": "_cap",
          "type": "uint256"
        },
        {
          "name": "_openingTime",
          "type": "uint256"
        },
        {
          "name": "_closingTime",
          "type": "uint256"
        }
      ],
      "payable": false,
      "stateMutability": "nonpayable",
      "type": "constructor"
    },
    {
      "payable": true,
      "stateMutability": "payable",
      "type": "fallback"
    },
    {
      "anonymous": false,
      "inputs": [
        {
          "indexed": true,
          "name": "previousOwner",
          "type": "address"
        }
      ],
      "name": "OwnershipRenounced",
      "type": "event"
    },
    {
      "anonymous": false,
      "inputs": [
        {
          "indexed": true,
          "name": "previousOwner",
          "type": "address"
        },
        {
          "indexed": true,
          "name": "newOwner",
          "type": "address"
        }
      ],
      "name": "OwnershipTransferred",
      "type": "event"
    },
    {
      "anonymous": false,
      "inputs": [
        {
          "indexed": true,
          "name": "purchaser",
          "type": "address"
        },
        {
          "indexed": true,
          "name": "beneficiary",
          "type": "address"
        },
        {
          "indexed": false,
          "name": "value",
          "type": "uint256"
        },
        {
          "indexed": false,
          "name": "amount",
          "type": "uint256"
        }
      ],
      "name": "TokenPurchase",
      "type": "event"
    },
    {
      "constant": true,
      "inputs": [
        {
          "name": "_beneficiary",
          "type": "address"
        }
      ],
      "name": "getUserContribution",
      "outputs": [
        {
          "name": "",
          "type": "uint256"
        }
      ],
      "payable": false,
      "stateMutability": "view",
      "type": "function"
    }
  ],
  "bytecode": "0x608060405266071afd498d00006009556802b5e3af16b1880000600a5534801561002857600080fd5b5060405160c080610ac783398101604090815281516020830151918301516060840151608085015160a090950151929491929091908181848888886000831161007057600080fd5b600160a060020a038216151561008557600080fd5b600160a060020a038116151561009a57600080fd5b60029290925560018054600160a060020a03928316600160a060020a0319918216179091556000805492909316911617815581116100d757600080fd5b600455428210156100e757600080fd5b818110156100f457600080fd5b600591909155600655505060078054600160a060020a03191633179055505050506109a3806101246000396000f30060806040526004361061011c5763ffffffff7c01000000000000000000000000000000000000000000000000000000006000350416631515bc2b81146101275780632c4e722e14610150578063355274ea146101775780634042b66f1461018c57806342e94c90146101a15780634b6753bc146101c25780634f935945146101d7578063521eb273146101ec578063715018a61461021d5780638ab1d681146102325780638c10671c146102535780638da5cb5b146102735780639b19251a14610288578063b25d7f54146102a9578063b7a8807c146102be578063bb8b2b47146102d3578063e43252d7146102f4578063ec8ac4d814610315578063ed5db87414610329578063f2fde38b1461033e578063fc0c546a1461035f575b61012533610374565b005b34801561013357600080fd5b5061013c610416565b604080519115158252519081900360200190f35b34801561015c57600080fd5b5061016561041e565b60408051918252519081900360200190f35b34801561018357600080fd5b50610165610424565b34801561019857600080fd5b5061016561042a565b3480156101ad57600080fd5b50610165600160a060020a0360043516610430565b3480156101ce57600080fd5b50610165610442565b3480156101e357600080fd5b5061013c610448565b3480156101f857600080fd5b50610201610453565b60408051600160a060020a039092168252519081900360200190f35b34801561022957600080fd5b50610125610462565b34801561023e57600080fd5b50610125600160a060020a03600435166104d0565b34801561025f57600080fd5b506101256004803560248101910135610508565b34801561027f57600080fd5b50610201610579565b34801561029457600080fd5b5061013c600160a060020a0360043516610588565b3480156102b557600080fd5b5061016561059d565b3480156102ca57600080fd5b506101656105a3565b3480156102df57600080fd5b50610165600160a060020a03600435166105a9565b34801561030057600080fd5b50610125600160a060020a03600435166105c4565b610125600160a060020a0360043516610374565b34801561033557600080fd5b506101656105ff565b34801561034a57600080fd5b50610125600160a060020a0360043516610605565b34801561036b57600080fd5b50610201610628565b3460006103818383610637565b61038a82610713565b6003549091506103a0908363ffffffff61073016565b6003556103ad838261073d565b60408051838152602081018390528151600160a060020a0386169233927f623b3804fa71d67900d064613da8f94b9617215ee90799290593e1745087ad18929081900390910190a36103ff8383610747565b61040761074b565b6104118383610747565b505050565b600654421190565b60025481565b60045481565b60035481565b600b6020526000908152604090205481565b60065481565b600454600354101590565b600154600160a060020a031681565b600754600160a060020a0316331461047957600080fd5b600754604051600160a060020a03909116907ff8df31144d9c2f0f6b59d69b8b98abd5459d07f2742c4df920b25aae33c6482090600090a26007805473ffffffffffffffffffffffffffffffffffffffff19169055565b600754600160a060020a031633146104e757600080fd5b600160a060020a03166000908152600860205260409020805460ff19169055565b600754600090600160a060020a0316331461052257600080fd5b5060005b818110156104115760016008600085858581811061054057fe5b60209081029290920135600160a060020a0316835250810191909152604001600020805460ff1916911515919091179055600101610526565b600754600160a060020a031681565b60086020526000908152604090205460ff1681565b60095481565b60055481565b600160a060020a03166000908152600b602052604090205490565b600754600160a060020a031633146105db57600080fd5b600160a060020a03166000908152600860205260409020805460ff19166001179055565b600a5481565b600754600160a060020a0316331461061c57600080fd5b61062581610784565b50565b600054600160a060020a031681565b6000806106448484610802565b600160a060020a0384166000908152600b6020526040902054915061066f828463ffffffff61073016565b905060095481101580156106855750600a548111155b15156106f257604080517f08c379a000000000000000000000000000000000000000000000000000000000815260206004820152601c60248201527f416d6f756e7420696e766573746564206e6f7420696e2072616e676500000000604482015290519081900360640190fd5b600160a060020a039093166000908152600b60205260409020929092555050565b600061072a6002548361083590919063ffffffff16565b92915050565b8181018281101561072a57fe5b610747828261085e565b5050565b600154604051600160a060020a03909116903480156108fc02916000818181858888f19350505050158015610625573d6000803e3d6000fd5b600160a060020a038116151561079957600080fd5b600754604051600160a060020a038084169216907f8be0079c531659141344cd1fd0a4f28419497f9722a3daafe3b4186f6b6457e090600090a36007805473ffffffffffffffffffffffffffffffffffffffff1916600160a060020a0392909216919091179055565b600160a060020a038216600090815260086020526040902054829060ff16151561082b57600080fd5b6104118383610907565b60008215156108465750600061072a565b5081810281838281151561085657fe5b041461072a57fe5b60008054604080517f40c10f19000000000000000000000000000000000000000000000000000000008152600160a060020a03868116600483015260248201869052915191909216926340c10f1992604480820193602093909283900390910190829087803b1580156108d057600080fd5b505af11580156108e4573d6000803e3d6000fd5b505050506040513d60208110156108fa57600080fd5b5051151561074757600080fd5b600554421015801561091b57506006544211155b151561092657600080fd5b61074782826109358282610956565b60045460035461094b908363ffffffff61073016565b111561074757600080fd5b600160a060020a038216151561096b57600080fd5b80151561074757600080fd00a165627a7a723058207513630a32dccb40346ea11e96da071c6893155a80fabb4d5a3e277506a9b9360029",
  "source": "pragma solidity 0.4.24;\r\n\r\nimport \"../node_modules/openzeppelin-solidity/contracts/crowdsale/Crowdsale.sol\";\r\nimport \"../node_modules/openzeppelin-solidity/contracts/crowdsale/emission/MintedCrowdsale.sol\";\r\nimport \"../node_modules/openzeppelin-solidity/contracts/crowdsale/validation/CappedCrowdsale.sol\";\r\nimport \"../node_modules/openzeppelin-solidity/contracts/crowdsale/validation/TimedCrowdsale.sol\";\r\nimport \"../node_modules/openzeppelin-solidity/contracts/crowdsale/validation/whitelistedCrowdsale.sol\";\r\n\r\ncontract DappTokenCrowdsale is Crowdsale, MintedCrowdsale, CappedCrowdsale,TimedCrowdsale, WhitelistedCrowdsale {\r\n// Track investor contributions\r\n    uint256 public investorMinCap = 2000000000000000; // 0.002 ether\r\n    uint256 public investorHardCap = 50000000000000000000; // 50 ether\r\n    mapping(address => uint256) public contributions;\r\n\r\n\r\n    constructor(\r\n        uint256 _rate,\r\n        address _wallet,\r\n        ERC20 _token,\r\n        uint256 _cap,\r\n        uint256 _openingTime,\r\n        uint256 _closingTime\r\n    )\r\n        Crowdsale(_rate, _wallet, _token)\r\n        CappedCrowdsale(_cap)\r\n        TimedCrowdsale(_openingTime, _closingTime)\r\n        public\r\n    {\r\n\r\n    }\r\n\r\n    /**\r\n     * @dev Returns the amount contributed so far by a sepecific user.\r\n     * @param _beneficiary Address of contributor\r\n     * @return User contribution so far\r\n     */\r\n    function getUserContribution(address _beneficiary)\r\n        public view returns (uint256)\r\n    {\r\n        return contributions[_beneficiary];\r\n    }\r\n\r\n    function _preValidatePurchase( \r\n        address _beneficiary,\r\n        uint256 _weiAmount\r\n        )\r\n         internal \r\n         {\r\n        super._preValidatePurchase(_beneficiary,_weiAmount);\r\n        uint256 _existingContribution = contributions[_beneficiary];\r\n        uint256 _newContributions = _existingContribution.add(_weiAmount);\r\n        require(\r\n            _newContributions >= investorMinCap && _newContributions <= investorHardCap,\r\n            \"Amount invested not in range\"\r\n            );\r\n        contributions[_beneficiary] = _newContributions;\r\n\r\n\r\n\r\n    }\r\n\r\n}\r\n",
  "sourcePath": "C:\\Users\\Dell780\\Documents\\Programming\\RWICO\\ico\\contracts\\DappTokenCrowdsale.sol",
  "compiler": {
    "name": "solc",
    "version": "0.4.24+commit.e67f0147.Emscripten.clang"
  },
  "schemaVersion": "2.0.1",
  "updatedAt": "2018-12-12T23:56:43.953Z"
}