{
  "contractName": "DappTokenCrowdsale",
  "abi": [
    {
      "constant": true,
      "inputs": [],
      "name": "hasClosed",
      "outputs": [
        {
          "name": "",
          "type": "bool"
        }
      ],
      "payable": false,
      "stateMutability": "view",
      "type": "function"
    },
    {
      "constant": true,
      "inputs": [],
      "name": "rate",
      "outputs": [
        {
          "name": "",
          "type": "uint256"
        }
      ],
      "payable": false,
      "stateMutability": "view",
      "type": "function"
    },
    {
      "constant": true,
      "inputs": [],
      "name": "cap",
      "outputs": [
        {
          "name": "",
          "type": "uint256"
        }
      ],
      "payable": false,
      "stateMutability": "view",
      "type": "function"
    },
    {
      "constant": true,
      "inputs": [],
      "name": "goal",
      "outputs": [
        {
          "name": "",
          "type": "uint256"
        }
      ],
      "payable": false,
      "stateMutability": "view",
      "type": "function"
    },
    {
      "constant": true,
      "inputs": [],
      "name": "weiRaised",
      "outputs": [
        {
          "name": "",
          "type": "uint256"
        }
      ],
      "payable": false,
      "stateMutability": "view",
      "type": "function"
    },
    {
      "constant": true,
      "inputs": [
        {
          "name": "",
          "type": "address"
        }
      ],
      "name": "contributions",
      "outputs": [
        {
          "name": "",
          "type": "uint256"
        }
      ],
      "payable": false,
      "stateMutability": "view",
      "type": "function"
    },
    {
      "constant": true,
      "inputs": [],
      "name": "closingTime",
      "outputs": [
        {
          "name": "",
          "type": "uint256"
        }
      ],
      "payable": false,
      "stateMutability": "view",
      "type": "function"
    },
    {
      "constant": false,
      "inputs": [],
      "name": "finalize",
      "outputs": [],
      "payable": false,
      "stateMutability": "nonpayable",
      "type": "function"
    },
    {
      "constant": true,
      "inputs": [],
      "name": "capReached",
      "outputs": [
        {
          "name": "",
          "type": "bool"
        }
      ],
      "payable": false,
      "stateMutability": "view",
      "type": "function"
    },
    {
      "constant": true,
      "inputs": [],
      "name": "wallet",
      "outputs": [
        {
          "name": "",
          "type": "address"
        }
      ],
      "payable": false,
      "stateMutability": "view",
      "type": "function"
    },
    {
      "constant": false,
      "inputs": [],
      "name": "renounceOwnership",
      "outputs": [],
      "payable": false,
      "stateMutability": "nonpayable",
      "type": "function"
    },
    {
      "constant": true,
      "inputs": [],
      "name": "goalReached",
      "outputs": [
        {
          "name": "",
          "type": "bool"
        }
      ],
      "payable": false,
      "stateMutability": "view",
      "type": "function"
    },
    {
      "constant": false,
      "inputs": [
        {
          "name": "_beneficiary",
          "type": "address"
        }
      ],
      "name": "removeFromWhitelist",
      "outputs": [],
      "payable": false,
      "stateMutability": "nonpayable",
      "type": "function"
    },
    {
      "constant": false,
      "inputs": [
        {
          "name": "_beneficiaries",
          "type": "address[]"
        }
      ],
      "name": "addManyToWhitelist",
      "outputs": [],
      "payable": false,
      "stateMutability": "nonpayable",
      "type": "function"
    },
    {
      "constant": true,
      "inputs": [],
      "name": "isFinalized",
      "outputs": [
        {
          "name": "",
          "type": "bool"
        }
      ],
      "payable": false,
      "stateMutability": "view",
      "type": "function"
    },
    {
      "constant": true,
      "inputs": [],
      "name": "owner",
      "outputs": [
        {
          "name": "",
          "type": "address"
        }
      ],
      "payable": false,
      "stateMutability": "view",
      "type": "function"
    },
    {
      "constant": true,
      "inputs": [
        {
          "name": "",
          "type": "address"
        }
      ],
      "name": "whitelist",
      "outputs": [
        {
          "name": "",
          "type": "bool"
        }
      ],
      "payable": false,
      "stateMutability": "view",
      "type": "function"
    },
    {
      "constant": true,
      "inputs": [],
      "name": "investorMinCap",
      "outputs": [
        {
          "name": "",
          "type": "uint256"
        }
      ],
      "payable": false,
      "stateMutability": "view",
      "type": "function"
    },
    {
      "constant": false,
      "inputs": [],
      "name": "claimRefund",
      "outputs": [],
      "payable": false,
      "stateMutability": "nonpayable",
      "type": "function"
    },
    {
      "constant": true,
      "inputs": [],
      "name": "openingTime",
      "outputs": [
        {
          "name": "",
          "type": "uint256"
        }
      ],
      "payable": false,
      "stateMutability": "view",
      "type": "function"
    },
    {
      "constant": false,
      "inputs": [
        {
          "name": "_beneficiary",
          "type": "address"
        }
      ],
      "name": "addToWhitelist",
      "outputs": [],
      "payable": false,
      "stateMutability": "nonpayable",
      "type": "function"
    },
    {
      "constant": false,
      "inputs": [
        {
          "name": "_beneficiary",
          "type": "address"
        }
      ],
      "name": "buyTokens",
      "outputs": [],
      "payable": true,
      "stateMutability": "payable",
      "type": "function"
    },
    {
      "constant": true,
      "inputs": [],
      "name": "investorHardCap",
      "outputs": [
        {
          "name": "",
          "type": "uint256"
        }
      ],
      "payable": false,
      "stateMutability": "view",
      "type": "function"
    },
    {
      "constant": false,
      "inputs": [
        {
          "name": "_newOwner",
          "type": "address"
        }
      ],
      "name": "transferOwnership",
      "outputs": [],
      "payable": false,
      "stateMutability": "nonpayable",
      "type": "function"
    },
    {
      "constant": true,
      "inputs": [],
      "name": "vault",
      "outputs": [
        {
          "name": "",
          "type": "address"
        }
      ],
      "payable": false,
      "stateMutability": "view",
      "type": "function"
    },
    {
      "constant": true,
      "inputs": [],
      "name": "token",
      "outputs": [
        {
          "name": "",
          "type": "address"
        }
      ],
      "payable": false,
      "stateMutability": "view",
      "type": "function"
    },
    {
      "inputs": [
        {
          "name": "_rate",
          "type": "uint256"
        },
        {
          "name": "_wallet",
          "type": "address"
        },
        {
          "name": "_token",
          "type": "address"
        },
        {
          "name": "_cap",
          "type": "uint256"
        },
        {
          "name": "_openingTime",
          "type": "uint256"
        },
        {
          "name": "_closingTime",
          "type": "uint256"
        },
        {
          "name": "_goal",
          "type": "uint256"
        }
      ],
      "payable": false,
      "stateMutability": "nonpayable",
      "type": "constructor"
    },
    {
      "payable": true,
      "stateMutability": "payable",
      "type": "fallback"
    },
    {
      "anonymous": false,
      "inputs": [],
      "name": "Finalized",
      "type": "event"
    },
    {
      "anonymous": false,
      "inputs": [
        {
          "indexed": true,
          "name": "previousOwner",
          "type": "address"
        }
      ],
      "name": "OwnershipRenounced",
      "type": "event"
    },
    {
      "anonymous": false,
      "inputs": [
        {
          "indexed": true,
          "name": "previousOwner",
          "type": "address"
        },
        {
          "indexed": true,
          "name": "newOwner",
          "type": "address"
        }
      ],
      "name": "OwnershipTransferred",
      "type": "event"
    },
    {
      "anonymous": false,
      "inputs": [
        {
          "indexed": true,
          "name": "purchaser",
          "type": "address"
        },
        {
          "indexed": true,
          "name": "beneficiary",
          "type": "address"
        },
        {
          "indexed": false,
          "name": "value",
          "type": "uint256"
        },
        {
          "indexed": false,
          "name": "amount",
          "type": "uint256"
        }
      ],
      "name": "TokenPurchase",
      "type": "event"
    },
    {
      "constant": true,
      "inputs": [
        {
          "name": "_beneficiary",
          "type": "address"
        }
      ],
      "name": "getUserContribution",
      "outputs": [
        {
          "name": "",
          "type": "uint256"
        }
      ],
      "payable": false,
      "stateMutability": "view",
      "type": "function"
    }
  ],
  "bytecode": "0x60806040526009805460ff1916905566071afd498d0000600c556802b5e3af16b1880000600d5534801561003257600080fd5b5060405160e08061158283398101604090815281516020830151918301516060840151608085015160a086015160c0909601519395929391929091808383868a8a8a6000831161008157600080fd5b600160a060020a038216151561009657600080fd5b600160a060020a03811615156100ab57600080fd5b60029290925560018054600160a060020a03928316600160a060020a0319918216179091556000805492909316911617815581116100e857600080fd5b600455428210156100f857600080fd5b8181101561010557600080fd5b60059190915560065560078054600160a060020a031916331790556000811161012d57600080fd5b600154600160a060020a031661014161020d565b600160a060020a03909116815260405190819003602001906000f08015801561016e573d6000803e3d6000fd5b50600b8054600160a060020a031916600160a060020a0392909216919091179055600a558381111561020157604080517f08c379a000000000000000000000000000000000000000000000000000000000815260206004820152601a60248201527f43726f776473616c6520476f616c206578636565647320436170000000000000604482015290519081900360640190fd5b5050505050505061021d565b60405161069080610ef283390190565b610cc68061022c6000396000f3006080604052600436106101455763ffffffff60e060020a6000350416631515bc2b81146101505780632c4e722e14610179578063355274ea146101a057806340193883146101b55780634042b66f146101ca57806342e94c90146101df5780634b6753bc146102005780634bb278f3146102155780634f9359451461022a578063521eb2731461023f578063715018a6146102705780637d3d6522146102855780638ab1d6811461029a5780638c10671c146102bb5780638d4e4083146102db5780638da5cb5b146102f05780639b19251a14610305578063b25d7f5414610326578063b5545a3c1461033b578063b7a8807c14610350578063bb8b2b4714610365578063e43252d714610386578063ec8ac4d8146103a7578063ed5db874146103bb578063f2fde38b146103d0578063fbfa77cf146103f1578063fc0c546a14610406575b61014e3361041b565b005b34801561015c57600080fd5b506101656104bd565b604080519115158252519081900360200190f35b34801561018557600080fd5b5061018e6104c5565b60408051918252519081900360200190f35b3480156101ac57600080fd5b5061018e6104cb565b3480156101c157600080fd5b5061018e6104d1565b3480156101d657600080fd5b5061018e6104d7565b3480156101eb57600080fd5b5061018e600160a060020a03600435166104dd565b34801561020c57600080fd5b5061018e6104ef565b34801561022157600080fd5b5061014e6104f5565b34801561023657600080fd5b5061016561056f565b34801561024b57600080fd5b5061025461057a565b60408051600160a060020a039092168252519081900360200190f35b34801561027c57600080fd5b5061014e610589565b34801561029157600080fd5b506101656105f7565b3480156102a657600080fd5b5061014e600160a060020a0360043516610602565b3480156102c757600080fd5b5061014e600480356024810191013561063a565b3480156102e757600080fd5b506101656106ab565b3480156102fc57600080fd5b506102546106b4565b34801561031157600080fd5b50610165600160a060020a03600435166106c3565b34801561033257600080fd5b5061018e6106d8565b34801561034757600080fd5b5061014e6106de565b34801561035c57600080fd5b5061018e610780565b34801561037157600080fd5b5061018e600160a060020a0360043516610786565b34801561039257600080fd5b5061014e600160a060020a03600435166107a1565b61014e600160a060020a036004351661041b565b3480156103c757600080fd5b5061018e6107dc565b3480156103dc57600080fd5b5061014e600160a060020a03600435166107e2565b3480156103fd57600080fd5b50610254610805565b34801561041257600080fd5b50610254610814565b3460006104288383610823565b610431826108ff565b600354909150610447908363ffffffff61091c16565b6003556104548382610929565b60408051838152602081018390528151600160a060020a0386169233927f623b3804fa71d67900d064613da8f94b9617215ee90799290593e1745087ad18929081900390910190a36104a68383610933565b6104ae610937565b6104b88383610933565b505050565b600654421190565b60025481565b60045481565b600a5481565b60035481565b600e6020526000908152604090205481565b60065481565b600754600160a060020a0316331461050c57600080fd5b60095460ff161561051c57600080fd5b6105246104bd565b151561052f57600080fd5b6105376109b8565b6040517f6823b073d48d6e3a7d385eeb601452d680e74bb46afe3255a7d778f3a9b1768190600090a16009805460ff19166001179055565b600454600354101590565b600154600160a060020a031681565b600754600160a060020a031633146105a057600080fd5b600754604051600160a060020a03909116907ff8df31144d9c2f0f6b59d69b8b98abd5459d07f2742c4df920b25aae33c6482090600090a26007805473ffffffffffffffffffffffffffffffffffffffff19169055565b600a54600354101590565b600754600160a060020a0316331461061957600080fd5b600160a060020a03166000908152600860205260409020805460ff19169055565b600754600090600160a060020a0316331461065457600080fd5b5060005b818110156104b85760016008600085858581811061067257fe5b60209081029290920135600160a060020a0316835250810191909152604001600020805460ff1916911515919091179055600101610658565b60095460ff1681565b600754600160a060020a031681565b60086020526000908152604090205460ff1681565b600c5481565b60095460ff1615156106ef57600080fd5b6106f76105f7565b1561070157600080fd5b600b54604080517ffa89401a0000000000000000000000000000000000000000000000000000000081523360048201529051600160a060020a039092169163fa89401a9160248082019260009290919082900301818387803b15801561076657600080fd5b505af115801561077a573d6000803e3d6000fd5b50505050565b60055481565b600160a060020a03166000908152600e602052604090205490565b600754600160a060020a031633146107b857600080fd5b600160a060020a03166000908152600860205260409020805460ff19166001179055565b600d5481565b600754600160a060020a031633146107f957600080fd5b61080281610aa7565b50565b600b54600160a060020a031681565b600054600160a060020a031681565b6000806108308484610b25565b600160a060020a0384166000908152600e6020526040902054915061085b828463ffffffff61091c16565b9050600c5481101580156108715750600d548111155b15156108de57604080517f08c379a000000000000000000000000000000000000000000000000000000000815260206004820152601c60248201527f416d6f756e7420696e766573746564206e6f7420696e2072616e676500000000604482015290519081900360640190fd5b600160a060020a039093166000908152600e60205260409020929092555050565b600061091660025483610b5890919063ffffffff16565b92915050565b8181018281101561091657fe5b6109338282610b81565b5050565b600b54604080517ff340fa010000000000000000000000000000000000000000000000000000000081523360048201529051600160a060020a039092169163f340fa01913491602480830192600092919082900301818588803b15801561099d57600080fd5b505af11580156109b1573d6000803e3d6000fd5b5050505050565b6109c06105f7565b15610a3557600b60009054906101000a9004600160a060020a0316600160a060020a03166343d726d66040518163ffffffff1660e060020a028152600401600060405180830381600087803b158015610a1857600080fd5b505af1158015610a2c573d6000803e3d6000fd5b50505050610aa1565b600b60009054906101000a9004600160a060020a0316600160a060020a0316638c52dc416040518163ffffffff1660e060020a028152600401600060405180830381600087803b158015610a8857600080fd5b505af1158015610a9c573d6000803e3d6000fd5b505050505b610aa55b565b600160a060020a0381161515610abc57600080fd5b600754604051600160a060020a038084169216907f8be0079c531659141344cd1fd0a4f28419497f9722a3daafe3b4186f6b6457e090600090a36007805473ffffffffffffffffffffffffffffffffffffffff1916600160a060020a0392909216919091179055565b600160a060020a038216600090815260086020526040902054829060ff161515610b4e57600080fd5b6104b88383610c2a565b6000821515610b6957506000610916565b50818102818382811515610b7957fe5b041461091657fe5b60008054604080517f40c10f19000000000000000000000000000000000000000000000000000000008152600160a060020a03868116600483015260248201869052915191909216926340c10f1992604480820193602093909283900390910190829087803b158015610bf357600080fd5b505af1158015610c07573d6000803e3d6000fd5b505050506040513d6020811015610c1d57600080fd5b5051151561093357600080fd5b6005544210158015610c3e57506006544211155b1515610c4957600080fd5b6109338282610c588282610c79565b600454600354610c6e908363ffffffff61091c16565b111561093357600080fd5b600160a060020a0382161515610c8e57600080fd5b80151561093357600080fd00a165627a7a72305820d54d0001560c67a0282e01f177b1774db5887933064c613fa8ddd90e689697530029608060405234801561001057600080fd5b50604051602080610690833981016040525160008054600160a060020a03191633179055600160a060020a038116151561004957600080fd5b60028054600160a060020a031916600160a060020a03929092169190911760a060020a60ff021916905561060e806100826000396000f3006080604052600436106100a35763ffffffff7c010000000000000000000000000000000000000000000000000000000060003504166343d726d681146100a8578063521eb273146100bf578063715018a6146100f05780638c52dc41146101055780638da5cb5b1461011a578063c19d93fb1461012f578063cb13cddb14610168578063f2fde38b1461019b578063f340fa01146101bc578063fa89401a146101d0575b600080fd5b3480156100b457600080fd5b506100bd6101f1565b005b3480156100cb57600080fd5b506100d46102c7565b60408051600160a060020a039092168252519081900360200190f35b3480156100fc57600080fd5b506100bd6102d6565b34801561011157600080fd5b506100bd610342565b34801561012657600080fd5b506100d46103cc565b34801561013b57600080fd5b506101446103db565b6040518082600281111561015457fe5b60ff16815260200191505060405180910390f35b34801561017457600080fd5b50610189600160a060020a03600435166103eb565b60408051918252519081900360200190f35b3480156101a757600080fd5b506100bd600160a060020a03600435166103fd565b6100bd600160a060020a036004351661041d565b3480156101dc57600080fd5b506100bd600160a060020a036004351661049d565b600054600160a060020a0316331461020857600080fd5b60006002805460a060020a900460ff169081111561022257fe5b1461022c57600080fd5b6002805474ff00000000000000000000000000000000000000001916740200000000000000000000000000000000000000001790556040517f1cdde67b72a90f19919ac732a437ac2f7a10fc128d28c2a6e525d89ce5cd9d3a90600090a1600254604051600160a060020a0390911690303180156108fc02916000818181858888f193505050501580156102c4573d6000803e3d6000fd5b50565b600254600160a060020a031681565b600054600160a060020a031633146102ed57600080fd5b60008054604051600160a060020a03909116917ff8df31144d9c2f0f6b59d69b8b98abd5459d07f2742c4df920b25aae33c6482091a26000805473ffffffffffffffffffffffffffffffffffffffff19169055565b600054600160a060020a0316331461035957600080fd5b60006002805460a060020a900460ff169081111561037357fe5b1461037d57600080fd5b6002805474ff0000000000000000000000000000000000000000191660a060020a1790556040517f599d8e5a83cffb867d051598c4d70e805d59802d8081c1c7d6dffc5b6aca2b8990600090a1565b600054600160a060020a031681565b60025460a060020a900460ff1681565b60016020526000908152604090205481565b600054600160a060020a0316331461041457600080fd5b6102c481610552565b600054600160a060020a0316331461043457600080fd5b60006002805460a060020a900460ff169081111561044e57fe5b1461045857600080fd5b600160a060020a038116600090815260016020526040902054610481903463ffffffff6105cf16565b600160a060020a03909116600090815260016020526040902055565b600060016002805460a060020a900460ff16908111156104b957fe5b146104c357600080fd5b50600160a060020a038116600081815260016020526040808220805490839055905190929183156108fc02918491818181858888f1935050505015801561050e573d6000803e3d6000fd5b50604080518281529051600160a060020a038416917fd7dee2702d63ad89917b6a4da9981c90c4d24f8c2bdfd64c604ecae57d8d0651919081900360200190a25050565b600160a060020a038116151561056757600080fd5b60008054604051600160a060020a03808516939216917f8be0079c531659141344cd1fd0a4f28419497f9722a3daafe3b4186f6b6457e091a36000805473ffffffffffffffffffffffffffffffffffffffff1916600160a060020a0392909216919091179055565b818101828110156105dc57fe5b929150505600a165627a7a72305820acdf5bea59ff1e46094bd651a9567aa60083728edc4976e6cb9384087ac5a9b70029",
  "source": "pragma solidity 0.4.24;\r\n\r\nimport \"../node_modules/openzeppelin-solidity/contracts/crowdsale/Crowdsale.sol\";\r\nimport \"../node_modules/openzeppelin-solidity/contracts/crowdsale/emission/MintedCrowdsale.sol\";\r\nimport \"../node_modules/openzeppelin-solidity/contracts/crowdsale/validation/CappedCrowdsale.sol\";\r\nimport \"../node_modules/openzeppelin-solidity/contracts/crowdsale/validation/TimedCrowdsale.sol\";\r\nimport \"../node_modules/openzeppelin-solidity/contracts/crowdsale/validation/whitelistedCrowdsale.sol\";\r\nimport \"../node_modules/openzeppelin-solidity/contracts/crowdsale/distribution/RefundableCrowdsale.sol\";\r\n\r\ncontract DappTokenCrowdsale is Crowdsale, MintedCrowdsale, CappedCrowdsale,TimedCrowdsale, WhitelistedCrowdsale, RefundableCrowdsale {\r\n// Track investor contributions\r\n    uint256 public investorMinCap = 2000000000000000; // 0.002 ether\r\n    uint256 public investorHardCap = 50000000000000000000; // 50 ether\r\n    mapping(address => uint256) public contributions;\r\n\r\n\r\n    constructor(\r\n        uint256 _rate,\r\n        address _wallet,\r\n        ERC20 _token,\r\n        uint256 _cap,\r\n        uint256 _openingTime,\r\n        uint256 _closingTime,\r\n        uint256 _goal\r\n    )\r\n        Crowdsale(_rate, _wallet, _token)\r\n        CappedCrowdsale(_cap)\r\n        TimedCrowdsale(_openingTime, _closingTime)\r\n        RefundableCrowdsale(_goal)\r\n        public\r\n    {\r\n        require(\r\n            _goal<=_cap,\r\n            \"Crowdsale Goal exceeds Cap\"\r\n            );\r\n    }\r\n\r\n    /**\r\n     * @dev Returns the amount contributed so far by a sepecific user.\r\n     * @param _beneficiary Address of contributor\r\n     * @return User contribution so far\r\n     */\r\n    function getUserContribution(address _beneficiary)\r\n        public view returns (uint256)\r\n    {\r\n        return contributions[_beneficiary];\r\n    }\r\n\r\n    function _preValidatePurchase( \r\n        address _beneficiary,\r\n        uint256 _weiAmount\r\n        )\r\n         internal \r\n         {\r\n        super._preValidatePurchase(_beneficiary,_weiAmount);\r\n        uint256 _existingContribution = contributions[_beneficiary];\r\n        uint256 _newContributions = _existingContribution.add(_weiAmount);\r\n        require(\r\n            _newContributions >= investorMinCap && _newContributions <= investorHardCap,\r\n            \"Amount invested not in range\"\r\n            );\r\n        contributions[_beneficiary] = _newContributions;\r\n\r\n\r\n\r\n    }\r\n\r\n}\r\n",
  "sourcePath": "C:\\Users\\Dell780\\Documents\\Programming\\RWICO\\ico\\contracts\\DappTokenCrowdsale.sol",
  "compiler": {
    "name": "solc",
    "version": "0.4.24+commit.e67f0147.Emscripten.clang"
  },
  "schemaVersion": "2.0.1",
  "updatedAt": "2018-12-13T00:24:00.527Z"
}